{
  "contractName": "Donation",
  "abi": [
    {
      "inputs": [],
      "stateMutability": "nonpayable",
      "type": "constructor"
    },
    {
      "anonymous": false,
      "inputs": [
        {
          "indexed": false,
          "internalType": "address",
          "name": "",
          "type": "address"
        },
        {
          "indexed": false,
          "internalType": "uint256",
          "name": "",
          "type": "uint256"
        }
      ],
      "name": "Received",
      "type": "event"
    },
    {
      "inputs": [],
      "name": "donationAddress",
      "outputs": [
        {
          "internalType": "address",
          "name": "",
          "type": "address"
        }
      ],
      "stateMutability": "view",
      "type": "function"
    },
    {
      "inputs": [],
      "name": "owner",
      "outputs": [
        {
          "internalType": "address",
          "name": "",
          "type": "address"
        }
      ],
      "stateMutability": "view",
      "type": "function"
    },
    {
      "stateMutability": "payable",
      "type": "receive"
    },
    {
      "inputs": [],
      "name": "donate",
      "outputs": [],
      "stateMutability": "payable",
      "type": "function"
    },
    {
      "inputs": [],
      "name": "getBalance",
      "outputs": [
        {
          "internalType": "uint256",
          "name": "",
          "type": "uint256"
        }
      ],
      "stateMutability": "view",
      "type": "function"
    },
    {
      "inputs": [
        {
          "internalType": "address",
          "name": "donatorAddress",
          "type": "address"
        }
      ],
      "name": "showDonationSum",
      "outputs": [
        {
          "internalType": "uint256",
          "name": "",
          "type": "uint256"
        }
      ],
      "stateMutability": "view",
      "type": "function"
    },
    {
      "inputs": [],
      "name": "showAllDonators",
      "outputs": [
        {
          "internalType": "address[]",
          "name": "",
          "type": "address[]"
        }
      ],
      "stateMutability": "view",
      "type": "function"
    },
    {
      "inputs": [
        {
          "internalType": "address payable",
          "name": "_receiver",
          "type": "address"
        }
      ],
      "name": "withdrawDonations",
      "outputs": [],
      "stateMutability": "nonpayable",
      "type": "function"
    }
  ],
  "bytecode": "0x608060405234801561001057600080fd5b50336000806101000a81548173ffffffffffffffffffffffffffffffffffffffff021916908373ffffffffffffffffffffffffffffffffffffffff16021790555030600260006101000a81548173ffffffffffffffffffffffffffffffffffffffff021916908373ffffffffffffffffffffffffffffffffffffffff16021790555061091d806100a16000396000f3fe6080604052600436106100745760003560e01c80638da5cb5b1161004e5780638da5cb5b14610205578063a56f5b5314610230578063ec034bed14610259578063ed88c68e146102845761016d565b806312065fe01461017257806346b548911461019d5780638c85ce16146101c85761016d565b3661016d5734600460003373ffffffffffffffffffffffffffffffffffffffff1673ffffffffffffffffffffffffffffffffffffffff16815260200190815260200160002060008282546100c891906105bc565b925050819055506001339080600181540180825580915050600190039060005260206000200160009091909190916101000a81548173ffffffffffffffffffffffffffffffffffffffff021916908373ffffffffffffffffffffffffffffffffffffffff1602179055507f88a5966d370b9919b20f3e2c13ff65706f196a4e32cc2c12bf57088f885258743334604051610163929190610662565b60405180910390a1005b600080fd5b34801561017e57600080fd5b5061018761028e565b604051610194919061068b565b60405180910390f35b3480156101a957600080fd5b506101b2610296565b6040516101bf9190610764565b60405180910390f35b3480156101d457600080fd5b506101ef60048036038101906101ea91906107b7565b610324565b6040516101fc919061068b565b60405180910390f35b34801561021157600080fd5b5061021a61036d565b60405161022791906107e4565b60405180910390f35b34801561023c57600080fd5b506102576004803603810190610252919061083d565b610391565b005b34801561026557600080fd5b5061026e610469565b60405161027b91906107e4565b60405180910390f35b61028c61048f565b005b600047905090565b6060600180548060200260200160405190810160405280929190818152602001828054801561031a57602002820191906000526020600020905b8160009054906101000a900473ffffffffffffffffffffffffffffffffffffffff1673ffffffffffffffffffffffffffffffffffffffff16815260200190600101908083116102d0575b5050505050905090565b6000600460008373ffffffffffffffffffffffffffffffffffffffff1673ffffffffffffffffffffffffffffffffffffffff168152602001908152602001600020549050919050565b60008054906101000a900473ffffffffffffffffffffffffffffffffffffffff1681565b60008054906101000a900473ffffffffffffffffffffffffffffffffffffffff1673ffffffffffffffffffffffffffffffffffffffff163373ffffffffffffffffffffffffffffffffffffffff161461041f576040517f08c379a0000000000000000000000000000000000000000000000000000000008152600401610416906108c7565b60405180910390fd5b8073ffffffffffffffffffffffffffffffffffffffff166108fc479081150290604051600060405180830381858888f19350505050158015610465573d6000803e3d6000fd5b5050565b600260009054906101000a900473ffffffffffffffffffffffffffffffffffffffff1681565b34600460003373ffffffffffffffffffffffffffffffffffffffff1673ffffffffffffffffffffffffffffffffffffffff16815260200190815260200160002060008282546104de91906105bc565b925050819055506001339080600181540180825580915050600190039060005260206000200160009091909190916101000a81548173ffffffffffffffffffffffffffffffffffffffff021916908373ffffffffffffffffffffffffffffffffffffffff1602179055507f88a5966d370b9919b20f3e2c13ff65706f196a4e32cc2c12bf57088f885258743334604051610579929190610662565b60405180910390a1565b6000819050919050565b7f4e487b7100000000000000000000000000000000000000000000000000000000600052601160045260246000fd5b60006105c782610583565b91506105d283610583565b9250827fffffffffffffffffffffffffffffffffffffffffffffffffffffffffffffffff038211156106075761060661058d565b5b828201905092915050565b600073ffffffffffffffffffffffffffffffffffffffff82169050919050565b600061063d82610612565b9050919050565b61064d81610632565b82525050565b61065c81610583565b82525050565b60006040820190506106776000830185610644565b6106846020830184610653565b9392505050565b60006020820190506106a06000830184610653565b92915050565b600081519050919050565b600082825260208201905092915050565b6000819050602082019050919050565b6106db81610632565b82525050565b60006106ed83836106d2565b60208301905092915050565b6000602082019050919050565b6000610711826106a6565b61071b81856106b1565b9350610726836106c2565b8060005b8381101561075757815161073e88826106e1565b9750610749836106f9565b92505060018101905061072a565b5085935050505092915050565b6000602082019050818103600083015261077e8184610706565b905092915050565b600080fd5b61079481610632565b811461079f57600080fd5b50565b6000813590506107b18161078b565b92915050565b6000602082840312156107cd576107cc610786565b5b60006107db848285016107a2565b91505092915050565b60006020820190506107f96000830184610644565b92915050565b600061080a82610612565b9050919050565b61081a816107ff565b811461082557600080fd5b50565b60008135905061083781610811565b92915050565b60006020828403121561085357610852610786565b5b600061086184828501610828565b91505092915050565b600082825260208201905092915050565b7f596f75607265206e6f7420616e206f776e657221000000000000000000000000600082015250565b60006108b160148361086a565b91506108bc8261087b565b602082019050919050565b600060208201905081810360008301526108e0816108a4565b905091905056fea2646970667358221220d698264e5f7d8ddc4af2bc2caf714e4f849fd437018022a5812174bebeb2f8c464736f6c634300080c0033",
  "immutableReferences": {},
  "source": "// SPDX-License-Identifier: MIT\r\npragma solidity ^0.8.0;\r\n\r\ncontract Donation {\r\n\r\n  address public owner;\r\n  address[] internal arrayOfDonators;\r\n  address public donationAddress;\r\n  uint internal arrayLength;\r\n\r\n  constructor() {\r\n    owner = msg.sender;\r\n    donationAddress = address(this);\r\n  }\r\n\r\n  mapping (address => uint) internal donation;\r\n\r\n  event Received(address, uint);\r\n\r\n  function donate () public payable {\r\n    donation[msg.sender] += msg.value;\r\n  /* \r\n    //        \r\n    bool isDonatorExist = false;\r\n    \r\n    for(uint i = 0; i <= arrayLength; i++) {\r\n      if (msg.sender == arrayOfDonators[i]){\r\n        isDonatorExist = true;\r\n      }\r\n    }\r\n\r\n    if (isDonatorExist == false) {\r\n      arrayOfDonators.push(msg.sender);\r\n    } \r\n  */\r\n    arrayOfDonators.push(msg.sender);\r\n    emit Received(msg.sender, msg.value);\r\n  }\r\n\r\n  function getBalance () public view returns (uint) {\r\n    return address(this).balance;\r\n  }\r\n\r\n  function showDonationSum (address donatorAddress) public view returns (uint) {\r\n    return donation[donatorAddress];\r\n  }\r\n\r\n  function showAllDonators () public view returns (address[] memory) {\r\n    return arrayOfDonators;\r\n  }\r\n\r\n  function withdrawDonations (address payable _receiver) external onlyOwner {\r\n    _receiver.transfer(address(this).balance);\r\n  }\r\n\r\n  modifier onlyOwner () {\r\n    require(msg.sender == owner, \"You`re not an owner!\");\r\n    _;\r\n  }\r\n\r\n  receive() external payable {\r\n    donation[msg.sender] += msg.value;\r\n    arrayOfDonators.push(msg.sender);\r\n\r\n    emit Received(msg.sender, msg.value);\r\n  }\r\n}\r\n",
  "sourcePath": "D:\\smart-contracts\\crypton_test_contract\\contract_of_truffle\\contracts\\Donation.sol",
  "compiler": {
    "name": "solc",
    "version": "0.8.12+commit.f00d7308.Emscripten.clang"
  },
  "schemaVersion": "3.4.4",
  "updatedAt": "2022-02-26T17:38:58.487Z",
  "devdoc": {
    "kind": "dev",
    "methods": {},
    "version": 1
  },
  "userdoc": {
    "kind": "user",
    "methods": {},
    "version": 1
  }
}