{
  "contractName": "Donation",
  "abi": [
    {
      "inputs": [],
      "stateMutability": "nonpayable",
      "type": "constructor"
    },
    {
      "anonymous": false,
      "inputs": [
        {
          "indexed": false,
          "internalType": "address",
          "name": "",
          "type": "address"
        },
        {
          "indexed": false,
          "internalType": "uint256",
          "name": "",
          "type": "uint256"
        }
      ],
      "name": "Received",
      "type": "event"
    },
    {
      "inputs": [],
      "name": "donationAddress",
      "outputs": [
        {
          "internalType": "address",
          "name": "",
          "type": "address"
        }
      ],
      "stateMutability": "view",
      "type": "function",
      "constant": true
    },
    {
      "inputs": [],
      "name": "Donate",
      "outputs": [],
      "stateMutability": "payable",
      "type": "function",
      "payable": true
    },
    {
      "inputs": [],
      "name": "getBalance",
      "outputs": [
        {
          "internalType": "uint256",
          "name": "",
          "type": "uint256"
        }
      ],
      "stateMutability": "view",
      "type": "function",
      "constant": true
    },
    {
      "inputs": [
        {
          "internalType": "address",
          "name": "donatorAddress",
          "type": "address"
        }
      ],
      "name": "showDonation",
      "outputs": [
        {
          "internalType": "uint256",
          "name": "",
          "type": "uint256"
        }
      ],
      "stateMutability": "view",
      "type": "function",
      "constant": true
    },
    {
      "inputs": [],
      "name": "showAllDonators",
      "outputs": [
        {
          "internalType": "address[]",
          "name": "",
          "type": "address[]"
        }
      ],
      "stateMutability": "view",
      "type": "function",
      "constant": true
    },
    {
      "inputs": [
        {
          "internalType": "address payable",
          "name": "receiver",
          "type": "address"
        }
      ],
      "name": "WithdrawDonations",
      "outputs": [],
      "stateMutability": "payable",
      "type": "function",
      "payable": true
    }
  ],
  "bytecode": "0x608060405234801561001057600080fd5b50336000806101000a81548173ffffffffffffffffffffffffffffffffffffffff021916908373ffffffffffffffffffffffffffffffffffffffff16021790555030600260006101000a81548173ffffffffffffffffffffffffffffffffffffffff021916908373ffffffffffffffffffffffffffffffffffffffff160217905550610ab1806100a16000396000f3fe6080604052600436106100555760003560e01c806312065fe01461005a578063165fae3e1461008557806346b54891146100a1578063d60b3313146100cc578063d917deb514610109578063ec034bed14610113575b600080fd5b34801561006657600080fd5b5061006f61013e565b60405161007c9190610635565b60405180910390f35b61009f600480360381019061009a91906106b3565b61017f565b005b3480156100ad57600080fd5b506100b66102fc565b6040516100c391906107b0565b60405180910390f35b3480156100d857600080fd5b506100f360048036038101906100ee91906107fe565b610418565b6040516101009190610635565b60405180910390f35b610111610461565b005b34801561011f57600080fd5b506101286105f6565b604051610135919061083a565b60405180910390f35b6000600260009054906101000a900473ffffffffffffffffffffffffffffffffffffffff1673ffffffffffffffffffffffffffffffffffffffff1631905090565b60008054906101000a900473ffffffffffffffffffffffffffffffffffffffff1673ffffffffffffffffffffffffffffffffffffffff163373ffffffffffffffffffffffffffffffffffffffff161461020d576040517f08c379a0000000000000000000000000000000000000000000000000000000008152600401610204906108b2565b60405180910390fd5b6000600260009054906101000a900473ffffffffffffffffffffffffffffffffffffffff1673ffffffffffffffffffffffffffffffffffffffff1631905060008273ffffffffffffffffffffffffffffffffffffffff168260405161027190610903565b60006040518083038185875af1925050503d80600081146102ae576040519150601f19603f3d011682016040523d82523d6000602084013e6102b3565b606091505b50509050806102f7576040517f08c379a00000000000000000000000000000000000000000000000000000000081526004016102ee90610964565b60405180910390fd5b505050565b606060008054906101000a900473ffffffffffffffffffffffffffffffffffffffff1673ffffffffffffffffffffffffffffffffffffffff163373ffffffffffffffffffffffffffffffffffffffff161461038c576040517f08c379a0000000000000000000000000000000000000000000000000000000008152600401610383906108b2565b60405180910390fd5b600180548060200260200160405190810160405280929190818152602001828054801561040e57602002820191906000526020600020905b8160009054906101000a900473ffffffffffffffffffffffffffffffffffffffff1673ffffffffffffffffffffffffffffffffffffffff16815260200190600101908083116103c4575b5050505050905090565b6000600460008373ffffffffffffffffffffffffffffffffffffffff1673ffffffffffffffffffffffffffffffffffffffff168152602001908152602001600020549050919050565b34600460003373ffffffffffffffffffffffffffffffffffffffff1673ffffffffffffffffffffffffffffffffffffffff16815260200190815260200160002060008282546104b091906109b3565b92505081905550600360008154809291906104ca90610a09565b91905055503360056000600354815260200190815260200160002060006101000a81548173ffffffffffffffffffffffffffffffffffffffff021916908373ffffffffffffffffffffffffffffffffffffffff160217905550600160056000600354815260200190815260200160002060009054906101000a900473ffffffffffffffffffffffffffffffffffffffff169080600181540180825580915050600190039060005260206000200160009091909190916101000a81548173ffffffffffffffffffffffffffffffffffffffff021916908373ffffffffffffffffffffffffffffffffffffffff1602179055507f88a5966d370b9919b20f3e2c13ff65706f196a4e32cc2c12bf57088f8852587433346040516105ec929190610a52565b60405180910390a1565b600260009054906101000a900473ffffffffffffffffffffffffffffffffffffffff1681565b6000819050919050565b61062f8161061c565b82525050565b600060208201905061064a6000830184610626565b92915050565b600080fd5b600073ffffffffffffffffffffffffffffffffffffffff82169050919050565b600061068082610655565b9050919050565b61069081610675565b811461069b57600080fd5b50565b6000813590506106ad81610687565b92915050565b6000602082840312156106c9576106c8610650565b5b60006106d78482850161069e565b91505092915050565b600081519050919050565b600082825260208201905092915050565b6000819050602082019050919050565b600061071782610655565b9050919050565b6107278161070c565b82525050565b6000610739838361071e565b60208301905092915050565b6000602082019050919050565b600061075d826106e0565b61076781856106eb565b9350610772836106fc565b8060005b838110156107a357815161078a888261072d565b975061079583610745565b925050600181019050610776565b5085935050505092915050565b600060208201905081810360008301526107ca8184610752565b905092915050565b6107db8161070c565b81146107e657600080fd5b50565b6000813590506107f8816107d2565b92915050565b60006020828403121561081457610813610650565b5b6000610822848285016107e9565b91505092915050565b6108348161070c565b82525050565b600060208201905061084f600083018461082b565b92915050565b600082825260208201905092915050565b7f596f75607265206e6f7420616e206f776e657221000000000000000000000000600082015250565b600061089c601483610855565b91506108a782610866565b602082019050919050565b600060208201905081810360008301526108cb8161088f565b9050919050565b600081905092915050565b50565b60006108ed6000836108d2565b91506108f8826108dd565b600082019050919050565b600061090e826108e0565b9150819050919050565b7f4661696c656420746f2073656e64204574686572000000000000000000000000600082015250565b600061094e601483610855565b915061095982610918565b602082019050919050565b6000602082019050818103600083015261097d81610941565b9050919050565b7f4e487b7100000000000000000000000000000000000000000000000000000000600052601160045260246000fd5b60006109be8261061c565b91506109c98361061c565b9250827fffffffffffffffffffffffffffffffffffffffffffffffffffffffffffffffff038211156109fe576109fd610984565b5b828201905092915050565b6000610a148261061c565b91507fffffffffffffffffffffffffffffffffffffffffffffffffffffffffffffffff821415610a4757610a46610984565b5b600182019050919050565b6000604082019050610a67600083018561082b565b610a746020830184610626565b939250505056fea2646970667358221220e1b2e7bfadf55374c8a522663dbf79a66e6c158e9cb5a307b053d60c4058d82864736f6c634300080b0033",
  "immutableReferences": {},
  "source": "// SPDX-License-Identifier: MIT\npragma solidity ^0.8.0;\n\ncontract Donation {\n\n  address private owner;\n  address[] private arrayOfDonators;\n  address public donationAddress;\n  uint private index;\n\n  constructor() {\n    owner = msg.sender;\n    donationAddress = address(this);\n  }\n\n  mapping (address => uint) internal donation;\n  mapping (uint => address) internal donator;\n\n  event Received(address, uint);\n\n  function Donate () public payable {\n    donation[msg.sender] += msg.value;\n\n    index++;\n    donator[index] = msg.sender;\n\n    arrayOfDonators.push(donator[index]);\n\n    emit Received(msg.sender, msg.value);\n  }\n\n  function getBalance () public view returns (uint) {\n    return donationAddress.balance;\n  }\n\n  function showDonation (address donatorAddress) public view returns (uint) {\n    return donation[donatorAddress];\n  }\n\n  function showAllDonators () public view returns (address[] memory) {\n    require(msg.sender == owner, \"You`re not an owner!\");\n    return arrayOfDonators;\n  }\n\n  function WithdrawDonations (address payable receiver) external payable onlyOwner {\n    uint amount = donationAddress.balance;\n    (bool success,) = receiver.call{value: amount}(\"\");\n    require(success, \"Failed to send Ether\");\n  }\n\n  modifier onlyOwner () {\n    require(msg.sender == owner, \"You`re not an owner!\");\n    _;\n  }\n}\n",
  "sourcePath": "D:\\smart-contracts\\crypton_test_contract\\contract_on_truffle\\contracts\\Donation.sol",
  "compiler": {
    "name": "solc",
    "version": "0.8.11+commit.d7f03943.Emscripten.clang"
  },
  "schemaVersion": "3.4.4",
  "updatedAt": "2022-02-13T12:00:51.747Z",
  "networkType": "ethereum",
  "devdoc": {
    "kind": "dev",
    "methods": {},
    "version": 1
  },
  "userdoc": {
    "kind": "user",
    "methods": {},
    "version": 1
  }
}