{
  "contractName": "Donation",
  "abi": [
    {
      "inputs": [],
      "stateMutability": "nonpayable",
      "type": "constructor"
    },
    {
      "anonymous": false,
      "inputs": [
        {
          "indexed": false,
          "internalType": "address",
          "name": "",
          "type": "address"
        },
        {
          "indexed": false,
          "internalType": "uint256",
          "name": "",
          "type": "uint256"
        }
      ],
      "name": "Received",
      "type": "event"
    },
    {
      "stateMutability": "payable",
      "type": "fallback"
    },
    {
      "inputs": [],
      "name": "donationAddress",
      "outputs": [
        {
          "internalType": "address",
          "name": "",
          "type": "address"
        }
      ],
      "stateMutability": "view",
      "type": "function"
    },
    {
      "inputs": [],
      "name": "owner",
      "outputs": [
        {
          "internalType": "address",
          "name": "",
          "type": "address"
        }
      ],
      "stateMutability": "view",
      "type": "function"
    },
    {
      "stateMutability": "payable",
      "type": "receive"
    },
    {
      "inputs": [],
      "name": "donate",
      "outputs": [],
      "stateMutability": "payable",
      "type": "function"
    },
    {
      "inputs": [],
      "name": "getBalance",
      "outputs": [
        {
          "internalType": "uint256",
          "name": "",
          "type": "uint256"
        }
      ],
      "stateMutability": "view",
      "type": "function"
    },
    {
      "inputs": [
        {
          "internalType": "address",
          "name": "donatorAddress",
          "type": "address"
        }
      ],
      "name": "showDonationSum",
      "outputs": [
        {
          "internalType": "uint256",
          "name": "",
          "type": "uint256"
        }
      ],
      "stateMutability": "view",
      "type": "function"
    },
    {
      "inputs": [],
      "name": "showAllDonators",
      "outputs": [
        {
          "internalType": "address[]",
          "name": "",
          "type": "address[]"
        }
      ],
      "stateMutability": "view",
      "type": "function"
    },
    {
      "inputs": [
        {
          "internalType": "address payable",
          "name": "_receiver",
          "type": "address"
        }
      ],
      "name": "withdrawDonations",
      "outputs": [],
      "stateMutability": "payable",
      "type": "function"
    }
  ],
  "bytecode": "0x608060405234801561001057600080fd5b50336000806101000a81548173ffffffffffffffffffffffffffffffffffffffff021916908373ffffffffffffffffffffffffffffffffffffffff16021790555030600260006101000a81548173ffffffffffffffffffffffffffffffffffffffff021916908373ffffffffffffffffffffffffffffffffffffffff1602179055506109d8806100a16000396000f3fe6080604052600436106100745760003560e01c80638da5cb5b1161004e5780638da5cb5b14610284578063a56f5b53146102af578063ec034bed146102cb578063ed88c68e146102f6576101b6565b806312065fe0146101f157806346b548911461021c5780638c85ce1614610247576101b6565b366101b6576000600360003373ffffffffffffffffffffffffffffffffffffffff1673ffffffffffffffffffffffffffffffffffffffff168152602001908152602001600020541415610125576001339080600181540180825580915050600190039060005260206000200160009091909190916101000a81548173ffffffffffffffffffffffffffffffffffffffff021916908373ffffffffffffffffffffffffffffffffffffffff1602179055505b34600360003373ffffffffffffffffffffffffffffffffffffffff1673ffffffffffffffffffffffffffffffffffffffff16815260200190815260200160002060008282546101749190610677565b925050819055507f88a5966d370b9919b20f3e2c13ff65706f196a4e32cc2c12bf57088f8852587433346040516101ac92919061071d565b60405180910390a1005b7f88a5966d370b9919b20f3e2c13ff65706f196a4e32cc2c12bf57088f8852587433346040516101e792919061071d565b60405180910390a1005b3480156101fd57600080fd5b50610206610300565b6040516102139190610746565b60405180910390f35b34801561022857600080fd5b50610231610308565b60405161023e919061081f565b60405180910390f35b34801561025357600080fd5b5061026e60048036038101906102699190610872565b610396565b60405161027b9190610746565b60405180910390f35b34801561029057600080fd5b506102996103df565b6040516102a6919061089f565b60405180910390f35b6102c960048036038101906102c491906108f8565b610403565b005b3480156102d757600080fd5b506102e06104db565b6040516102ed919061089f565b60405180910390f35b6102fe610501565b005b600047905090565b6060600180548060200260200160405190810160405280929190818152602001828054801561038c57602002820191906000526020600020905b8160009054906101000a900473ffffffffffffffffffffffffffffffffffffffff1673ffffffffffffffffffffffffffffffffffffffff1681526020019060010190808311610342575b5050505050905090565b6000600360008373ffffffffffffffffffffffffffffffffffffffff1673ffffffffffffffffffffffffffffffffffffffff168152602001908152602001600020549050919050565b60008054906101000a900473ffffffffffffffffffffffffffffffffffffffff1681565b60008054906101000a900473ffffffffffffffffffffffffffffffffffffffff1673ffffffffffffffffffffffffffffffffffffffff163373ffffffffffffffffffffffffffffffffffffffff1614610491576040517f08c379a000000000000000000000000000000000000000000000000000000000815260040161048890610982565b60405180910390fd5b8073ffffffffffffffffffffffffffffffffffffffff166108fc349081150290604051600060405180830381858888f193505050501580156104d7573d6000803e3d6000fd5b5050565b600260009054906101000a900473ffffffffffffffffffffffffffffffffffffffff1681565b6000600360003373ffffffffffffffffffffffffffffffffffffffff1673ffffffffffffffffffffffffffffffffffffffff1681526020019081526020016000205414156105ad576001339080600181540180825580915050600190039060005260206000200160009091909190916101000a81548173ffffffffffffffffffffffffffffffffffffffff021916908373ffffffffffffffffffffffffffffffffffffffff1602179055505b34600360003373ffffffffffffffffffffffffffffffffffffffff1673ffffffffffffffffffffffffffffffffffffffff16815260200190815260200160002060008282546105fc9190610677565b925050819055507f88a5966d370b9919b20f3e2c13ff65706f196a4e32cc2c12bf57088f88525874333460405161063492919061071d565b60405180910390a1565b6000819050919050565b7f4e487b7100000000000000000000000000000000000000000000000000000000600052601160045260246000fd5b60006106828261063e565b915061068d8361063e565b9250827fffffffffffffffffffffffffffffffffffffffffffffffffffffffffffffffff038211156106c2576106c1610648565b5b828201905092915050565b600073ffffffffffffffffffffffffffffffffffffffff82169050919050565b60006106f8826106cd565b9050919050565b610708816106ed565b82525050565b6107178161063e565b82525050565b600060408201905061073260008301856106ff565b61073f602083018461070e565b9392505050565b600060208201905061075b600083018461070e565b92915050565b600081519050919050565b600082825260208201905092915050565b6000819050602082019050919050565b610796816106ed565b82525050565b60006107a8838361078d565b60208301905092915050565b6000602082019050919050565b60006107cc82610761565b6107d6818561076c565b93506107e18361077d565b8060005b838110156108125781516107f9888261079c565b9750610804836107b4565b9250506001810190506107e5565b5085935050505092915050565b6000602082019050818103600083015261083981846107c1565b905092915050565b600080fd5b61084f816106ed565b811461085a57600080fd5b50565b60008135905061086c81610846565b92915050565b60006020828403121561088857610887610841565b5b60006108968482850161085d565b91505092915050565b60006020820190506108b460008301846106ff565b92915050565b60006108c5826106cd565b9050919050565b6108d5816108ba565b81146108e057600080fd5b50565b6000813590506108f2816108cc565b92915050565b60006020828403121561090e5761090d610841565b5b600061091c848285016108e3565b91505092915050565b600082825260208201905092915050565b7f596f75607265206e6f7420616e206f776e657221000000000000000000000000600082015250565b600061096c601483610925565b915061097782610936565b602082019050919050565b6000602082019050818103600083015261099b8161095f565b905091905056fea2646970667358221220ef546e752b354f83ae1ab813a8851baaa4ee9aaf975fc93e491c80a33aa8e9c464736f6c634300080c0033",
  "immutableReferences": {},
  "source": "// SPDX-License-Identifier: MIT\r\npragma solidity ^0.8.0;\r\n\r\ncontract Donation {\r\n\r\n  address public owner;\r\n  address[] internal arrayOfDonators;\r\n  address public donationAddress;\r\n\r\n  constructor() {\r\n    owner = msg.sender;\r\n    donationAddress = address(this);\r\n  }\r\n\r\n  mapping (address => uint) internal donation;\r\n\r\n  event Received(address, uint);\r\n\r\n  receive() external payable {\r\n    if(donation[msg.sender] == 0) {\r\n            arrayOfDonators.push(msg.sender);\r\n        }\r\n    donation[msg.sender] += msg.value;\r\n\r\n    emit Received(msg.sender, msg.value);\r\n  }\r\n  \r\n  fallback() external payable {    \r\n    emit Received(msg.sender, msg.value);\r\n  }\r\n\r\n  function donate () public payable {\r\n    if(donation[msg.sender] == 0) {\r\n        arrayOfDonators.push(msg.sender);\r\n    }\r\n    donation[msg.sender] += msg.value;\r\n\r\n    emit Received(msg.sender, msg.value);\r\n  }\r\n\r\n  function getBalance () public view returns (uint) {\r\n    return address(this).balance;\r\n  }\r\n\r\n  function showDonationSum (address donatorAddress) public view returns (uint) {\r\n    return donation[donatorAddress];\r\n  }\r\n\r\n  function showAllDonators () public view returns (address[] memory) {\r\n    return arrayOfDonators;\r\n  }\r\n\r\n  function withdrawDonations (address payable _receiver) payable external onlyOwner {\r\n    _receiver.transfer(msg.value);\r\n  }\r\n\r\n  modifier onlyOwner () {\r\n    require(msg.sender == owner, \"You`re not an owner!\");\r\n    _;\r\n  }\r\n}",
  "sourcePath": "D:\\smart-contracts\\crypton_test_contract\\contract_of_truffle\\contracts\\Donation.sol",
  "compiler": {
    "name": "solc",
    "version": "0.8.12+commit.f00d7308.Emscripten.clang"
  },
  "schemaVersion": "3.4.4",
  "updatedAt": "2022-03-13T19:36:47.215Z",
  "devdoc": {
    "kind": "dev",
    "methods": {},
    "version": 1
  },
  "userdoc": {
    "kind": "user",
    "methods": {},
    "version": 1
  }
}